:020000040000FA
:100000000012002021080000BD0700007907000051
:10001000CD070000DD070000ED0700000000000034
:100020000000000000000000000000004107000088
:10003000FD07000000000000F50600000D080000AC
:10004000000000000000000000000000450F00005C
:1000500000000000450F000000000000000000004C
:10006000E50F0000011000001D1000003910000015
:1000700000000000450F0000450F0000450F000084
:10008000450F0000450F00000000000000000000C8
:10009000450F0000450F00000000000000000000B8
:1000A000450F00000000000000000000450F0000A8
:1000B000450F0000450F0000450F0000450F0000F0
:1000C000450F0000450F0000450F0000450F0000E0
:1000D000450F000000000000450F00000000000078
:1000E000450F000000000000450F00000000000068
:1000F000450F0000000000000000000000000000AC
:1001000000000000450F000000000000000000009B
:1001100000000000000000000000000000000000DF
:1001200000000000450F000000000000000000007B
:1001300000000000000000000000000000000000BF
:10014000450F0000384B10B5D3F8D02022F0010243
:10015000C3F8D020D3F8D02042F00202C3F8D02058
:100160000222930003F1A04303F54053D3F8001695
:10017000013221F01001202AC3F80016F1D1082223
:10018000930003F1A04303F54053D3F80017013265
:1001900021F01001202AC3F80017F1D10122234BCE
:1001A000C3F80025C3F80425D3F8082922F010026B
:1001B000C3F80829D3F8202822F01002C3F8202819
:1001C0000022C3F8C0244FF48033194A93601A68A0
:1001D00082F388885C6864086400204621462246D1
:1001E0002346B7EE000AF7EE000AB7EE001AF7EE64
:1001F000001AB7EE002AF7EE002AB7EE003AF7EE43
:10020000003AB7EE004AF7EE004AB7EE005AF7EEB2
:10021000005AB7EE006AF7EE006AB7EE007AF7EE22
:10022000007A00F049FFFEE700ED00E000300050EA
:1002300000ED02E070B50025054E064CA41BA40895
:10024000AC4200D170BD56F8253098470135F7E72C
:1002500040230000402300007047000008B5EFF382
:100260000583DBB243B9EFF310832BB9044801F0E7
:1002700029F900F035F9FCE70320014900F03AF8CC
:100280006A1F000008B57146024801F0B3F8FFF795
:10029000E5FF00BF7C1F000008B5FFF7CBFF034858
:1002A00001F010F9FFF74EFF002008BD851F000088
:1002B0001FB5EFF3108372B6074B0722029300239A
:1002C0000193064B4FF4C061009305480C2300F0E6
:1002D00021F900F0F9F900BFD21F000099020000D7
:1002E0006412002008B500F0B5FEBDE8084000F03B
:1002F000D3BE704708B50B4B0C461A6852B90122A1
:100300001A60FFF7F6FF2146074801F073F8074827
:1003100001F0D8F8EFF3108372B600F08BF900F01B
:1003200011FC00BF64180020D71F0000F31F00005D
:1003300008B503790B2B04BF0C230371436A1A68B9
:10034000934208D0B0F90610034801F053F80D208D
:100350000249FFF7CFFF08BD002000002F2000005A
:1003600070B5154C154E2368356813BB15B128467A
:10037000FFF7DEFF00F0FAF92368002BFAD0002027
:1003800000220F4B1A6023680E4AB3FA83F352F827
:1003900023301C680B23083CA542237107D008B109
:1003A000FFF7C6FFB4F90620074B34601A802046D9
:1003B00070BD2846E4E700BF68180020B018002090
:1003C000AC1800206C1800203C1900200A2930B518
:1003D00003791AD90A2B14D842791A4B00F1080470
:1003E00053F822507DB12D68856053F822502C605F
:1003F00043F822404FF00043134CD340226813438C
:100400002360017130BD8460F2E70A2BF9D9457988
:100410000C4A52F825303BB11C68A3420BBF0023A5
:10042000246842F825301C60437952F82320002AC2
:10043000E7D14FF00042044CDA40236823EA02037C
:10044000DEE700BF6C180020681800200B4B1B680B
:100450005A791B790A2B01D990420DD2EFF305830B
:10046000DBB21BB10122064B1A6070474FF080527D
:10047000044B5A60BFF36F8F704700BFB018002065
:10048000AC18002000ED00E008B5EFF3108372B661
:100490000021084B084A1B88084C1BB242F8231065
:1004A000074A20681368013B1360FFF78FFF216044
:1004B00000F00AF93C190020B8180020B0180020FC
:1004C000B4180020431E9BB21F2B05D8034B53F8D2
:1004D000200010B1806A704700207047B8180020D3
:1004E00010B5EFF30583DBB27BB9EFF3108472B67E
:1004F000064B02211868FFF769FF84F310884FF05C
:100500008052034B5A60BFF36F8F10BDB0180020AC
:1005100000ED00E00F2A2DE9F84F05468A46904687
:10052000994632D810F003030FBF0B46C3F1040203
:10053000043B5B18A3F1300318BFAD1823F003038D
:1005400019F0080F05EB030416D12D6003E01260CB
:100550000432A242FBD3EFF3108B72B6254A012678
:10056000114652F8047F9FB10136212EF9D18BF349
:1005700010886FF08A063AE02A46EAE70221204610
:10058000FFF724FF8BF3108831E06FF015062EE0A3
:1005900036B241F826402A46DDE90A01E68000F03D
:1005A0005FF80C9B144AA3624FF0FF33C4E907378E
:1005B000136819F0010F03F101032060C4E9027709
:1005C000C4E904776562C4F82CA084F8058027711B
:1005D000A7611360D2D10C212046FFF7F7FE19F076
:1005E000040FCFD18BF310884046FFF72FFF304622
:1005F000BDE8F88FB8180020B41800200A4B0B4A49
:1006000010B59A60E022202183F822200022084CB5
:10061000D977A0180132412A80F80013F9D11A695C
:1006200042F010021A6110BD00ED00E00000000071
:1006300000E100E008B5EFF30581C1F3080119B14D
:100640000548103900F0D6FE044BD3F8F030DB0734
:1006500000D500BE08BD00BF3E20000000ED00E058
:1006600010B54FF077341A4422F0030242F8044CDC
:10067000540758BF4FF08834A2F104035CBF42F81E
:10068000084CA2F108034FF0807243E902020D4AC0
:10069000002043F80C2C0322022443E90520012208
:1006A00043F8201C43E9072419466FF0020241F881
:1006B000242D0B2241F8042D013A032AFAD1A3F18B
:1006C000440010BD890400000023E1EE103AEFF36E
:1006D000148323F0040383F31488BFF36F8FEFF3C5
:1006E000108362B64FF08052014B5A60BFF36F8F98
:1006F00000ED00E0114910B50C6872B6FFF730FE4E
:1007000062B6A04208BF10BD2146BDE8104049B105
:10071000EFF309821EF0100F08BF22ED108A22E9C4
:10072000F04F0A600068B0E8F04F1EF0100F08BFED
:10073000B0EC108A80F3098870470000B0180020E0
:100740001EF0040F0CBFEFF30880EFF3098000F0F8
:1007500001B80000836913F8023C012B02BF4FF07F
:100760008052014B5A60704700ED00E030BF62B626
:10077000BFF36F8F72B670470D4B0E4A0E49684635
:10078000904203D8984201D9002102E009468D46E3
:10079000012104207246024202D1EFF3088001E0F9
:1007A000EFF309802DE9F00F6B4600F085F800BFEC
:1007B000580100200000012000120020062008B58A
:1007C0000149FFF797FD00BF4D200000052008B547
:1007D0000149FFF78FFD00BF59200000082008B530
:1007E0000149FFF787FD00BF6C200000092008B514
:1007F0000149FFF77FFD00BF7E2000000A2008B5F9
:100800000149FFF777FD00BF922000000B2008B5DB
:100810000149FFF76FFD00BFA4200000704770473B
:1008200010B51D4C84F30A881C4AD2F8883043F472
:100830007003C2F88830FFF7F1FF6A462346184973
:10084000934225D3174B1848DA1C121AC11E22F006
:100850000302994288BF0022144900F042FF144B62
:100860001448DA1C121AC11E22F00302994288BFF2
:100870000022002100F006FFFFF7D1FF00F0FDF895
:10088000FFF7EAFC00F006FFBDE81040FFF710BDDF
:1008900043F8041BD4E700BF0000002000ED00E097
:1008A000FEE7FEE764120020001200204023000053
:1008B000B81A0020641200202DE9F04F9946544BDD
:1008C00092469A6B8FB003925A6BD3F828800492A9
:1008D000DA6A044605921A6BDB6B069207934D4B5E
:1008E0000D461A684C4B9A4202D04C4800F0EAFD83
:1008F000002D62D000264A4800F0E4FD494B4A48EA
:100900001988374609B200F075FD484800F0DAFD55
:100910004146474800F06EFD0599464800F06AFDE3
:100920000699454800F066FD0799444800F062FDCD
:1009300018F4004F03D00399414800F05BFD18F014
:10094000800F03D004993F4800F054FD3E4800F06A
:10095000B9FD51463D4800F04DFD002D29D11AF05A
:10096000080F4ED02F4B1D882DB22846FFF7AAFD49
:1009700029460246364800F03DFD364800F0A2FD0B
:100980003946354800F036FD6946344BC91A03D55F
:100990003348494200F02EFD20468268C368016951
:1009A0008C4641698E46B546494691E8F00F41684C
:1009B000006807202B49FFF79DFCA368E1680C93B2
:1009C0002369294808936369D4E900B20B910D9219
:1009D0000993D4E906730A9300F074FDDDE90C3243
:1009E0000B9922480091594600F004FDDDE90812F8
:1009F0000A9B1F4800933B4604F1200600F0FAFCD6
:100A000083E7217F1B48103900F0F4FCB5E700BFF5
:100A100000ED00E000000020FEE7FEE7B22000004D
:100A2000C82000003C190020F7200000A121000090
:100A3000AA210000BA210000CA210000DA2100002A
:100A4000EA210000FA2100000A2200000F22000023
:100A500021220000602200009122000058010020A5
:100A6000B9220000E62200000B2100002621000030
:100A7000632100003A220000704708B5FFF7FCFF31
:100A8000FFF7BCFDFFF72EFCBDE8084000F000BBFF
:100A9000014B186800F078BC10120020704700006D
:100AA000034630B5EFF3108472B6094A094D106859
:100AB0000144A94205D8084DA94202D31160421C45
:100AC00003D10C224FF0FF301A6084F3108830BD40
:100AD0000012002000000120B81A0020194610461C
:100AE00000F0D7BA1946104600F0DDBA13230360B0
:100AF0004FF0FF307047132303604FF0FF30704713
:100B0000132303604FF0FF30704700230229036076
:100B10008CBF0020012070470C2907D841F219032F
:100B2000CB40DB0706D44FF0FF30704740F20C6338
:100B30009942F8D1024B803043F8201000207047D2
:100B4000002584500122024BC3F80025FEE700BFB8
:100B50000040005008B50F4B53F83030D3F8102147
:100B600072B10022C3F81021D3F83C3543B10A4BCF
:100B70000A4903EBC002095C53F8303050689847CB
:100B8000074B1B682BB14FF08052064B5A60BFF3E6
:100B90006F8F08BD2C230000401900203E19002053
:100BA000AC18002000ED00E001282DE9F0470646D2
:100BB0000D46174600F2A8800021DFF88081544AD4
:100BC00058F8304042F8307002EBC0024FEAC009DA
:100BD0005360C4F86C1547B108EB090393F804A0FF
:100BE0005046FFF799FFC4F814A5C84498F805804B
:100BF00003214046FFF790FF4FF0FF33B5F5614FFB
:100C0000C4F80C85C4F80835C4F8103553D021D881
:100C1000B5F5615F48D012D8B5F5965F42D009D8D6
:100C2000B5F5966F31D0B5F5166F38D06FF08500F9
:100C3000BDE8F087B5F5165FF8D1364B27E0B5F57E
:100C4000E14F33D0B5F5164F32D0B5F5964FEDD113
:100C5000314B1CE0314B9D4236D00AD8B5F5E13F0F
:100C60002CD0B5F5613F2CD0B5F5963FDED12C4B9D
:100C70000DE0B5F5612F2AD02A4B9D422AD0B5F55B
:100C8000E12FD3D14FF0E86301E04FF49E23C4F885
:100C900024350823C4F80035FFB90020C8E74FF415
:100CA0001D23F4E7204BF2E7204BF0E7204BEEE763
:100CB0004FF41D03EBE74FF46B03E8E74FF0EB73E2
:100CC000E5E74FF06C73E2E74FF08063DFE74FF04A
:100CD0007063DCE74FF08053D9E70122154BC4F86D
:100CE00038253344C4F834351023C4F80433D4F819
:100CF0000032204643F02003C4F800320E4922603F
:100D0000324600F06DF9C8E76FF0120090E700BFBF
:100D1000401900200050270000A04E0090D0030092
:100D200000903A0140420F0000B0130000F03A007A
:100D300000C075003E190020550B00002C23000058
:100D40002DE9F047012806460C46154688B001D922
:100D5000FFF798FA11F0005727D14FF00109DFF89B
:100D600070A0AF4202D308B0BDE8F087A5EB07083A
:100D7000B8F1200F28BF4FF0200868464246E1191D
:100D800000F0AFFC00225AF83630C3F82021C3F837
:100D900044D5C3F84885C3F80890D3F82021002A29
:100DA000FBD0C3F80C904744DBE70022084B53F814
:100DB0003030C3F820210122C3F84415C3F8485548
:100DC0009A60D3F820110029FBD0DA60CBE700BF8E
:100DD0002C2300001C4A70469369714643F03C0383
:100DE0009361B7EE000A72467346F7EE000AB7EE5B
:100DF000001AF7EE001AB7EE002AF7EE002AB7EE57
:100E0000003AF7EE003AB7EE004AF7EE004AB7EEC6
:100E1000005AF7EE005AB7EE006AF7EE006AB7EE36
:100E2000007AF7EE007A8EF3008C10B4F1EE10CA5F
:100E30004FF66074C0F6FF740CEA040CE1EE10CAC1
:100E400010BCF446744700BF0025845001231D4A9E
:100E50000230916883400B4393607046714672463E
:100E60007346B7EE000AF7EE000AB7EE001AF7EE87
:100E7000001AB7EE002AF7EE002AB7EE003AF7EEB6
:100E8000003AB7EE004AF7EE004AB7EE005AF7EE26
:100E9000005AB7EE006AF7EE006AB7EE007AF7EE96
:100EA000007A8EF3008C10B4F1EE10CA4FF6607425
:100EB000C0F6FF740CEA040CE1EE10CA10BCF44654
:100EC000744700BF0025845001231D4A0230D168B9
:100ED00083400B43D3607046714672467346B7EE4B
:100EE000000AF7EE000AB7EE001AF7EE001AB7EEA6
:100EF000002AF7EE002AB7EE003AF7EE003AB7EE16
:100F0000004AF7EE004AB7EE005AF7EE005AB7EE85
:100F1000006AF7EE006AB7EE007AF7EE007A8EF319
:100F2000008C10B4F1EE10CA4FF66074C0F6FF7476
:100F30000CEA040CE1EE10CA10BCF446744700BF82
:100F400000258450FFF762BC044B1B682BB14FF0A7
:100F50008052034B5A60BFF36F8F7047AC1800206C
:100F600000ED00E008B50C4B98420DD003F580531E
:100F700098420BD003F58053984209D003F5805373
:100F8000984207D0FFF77EF9002008BD0120FCE75A
:100F90000220FAE70320F8E70080005038B50D463C
:100FA0001446FFF7DFFF0A4B43F82050094B43F884
:100FB0002040094B1B56002B08DB0122590903F086
:100FC0001F0302FA03F3054A42F8213038BD00BF7F
:100FD00060190020501900203C23000000E100E0CF
:100FE000FFF7DCBF08B5044A044B10681B6898473C
:100FF000BDE80840FFF7A8BF501900206019002085
:1010000008B5044A044B50685B689847BDE808403F
:10101000FFF79ABF501900206019002008B5044A54
:10102000044B90689B689847BDE80840FFF78CBF69
:10103000501900206019002008B5044A044BD068FC
:10104000DB689847BDE80840FFF77EBF50190020D5
:101050006019002038B503210220FFF75DFD04254B
:1010600003210A4C0846E560FFF756FD08230321DB
:10107000E3602846FFF750FD10230321E3600520BD
:10108000FFF74AFD2023E36038BD00BF00258450F0
:1010900070476FF08500704700234FF4E1311A4626
:1010A0001846FFF781BD10B50C460A4601460020E0
:1010B000FFF746FE204610BD2DE9E04F2746A0462B
:1010C000A146A246A346A4462DED108B4FF0000585
:1010D00045EC185B45EC195A45EC1A5A45EC1B5A7D
:1010E00045EC1C5A45EC1D5A45EC1E5A45EC1F5A5E
:1010F000F1EE105A4FF66076C0F6FF763540E1EE1D
:10110000105A84F3008825462646A447BDEC108B70
:10111000BDE8E08F70B50F4E0C460546316811B939
:10112000FFF7BEFC306021462846FFF7B9FC431CA0
:1011300003D14FF0FF34204670BDC41C24F00304DB
:10114000A042F8D0211A2846FFF7AAFC0130F2D1BC
:10115000EFE700BF701900202DE9F843CD1C0646CB
:1011600025F0030508350C2D38BF0C25002D01DBBB
:10117000A94204D90C2333600020BDE8F883DFF8CE
:10118000D48000F069F8D8F800301C4644BB2946EA
:101190003046FFF7BFFF431C044658D1D8F8004043
:1011A0002746002F43D1002C4BD0236839463046C8
:1011B00004EB0309FFF774FC814542D121683046F6
:1011C0006D1A2946FFF7A6FF01303AD023682B4459
:1011D0002360D8F800305A6862BBC8F800700FE08E
:1011E0002268521B20D40B2A17D96119A34225600B
:1011F00018BF5960636808BFC8F8001062514B609F
:10120000304600F02FF804F10B00231D20F00700FA
:10121000C21A1CBF1B1AA350AFE76268A3420CBFDF
:10122000C8F800205A60EBE723466468AEE73C4606
:101230007F68B6E71A465B68A342FBD10023536080
:10124000DEE70C233046336000F00CF894E70560CD
:10125000D6E700BF74190020014800F040BA00BF73
:10126000B41A0020014800F03BBA00BFB41A0020B5
:10127000002310B504468360818119464366C2810C
:1012800008228361C0E90033C0E904335C3000F018
:10129000F9F90D4B246263620C4BA3620C4BE362C1
:1012A0000C4B23630C4B9C4206D003F16802944222
:1012B00002D0D0339C4205D104F15800BDE8104063
:1012C00000F00CBA10BD00BFD5140000F7140000E8
:1012D0002F1500005315000078190020024A034919
:1012E000034800F069B800BF041200203D1E000052
:1012F0001412002041680C4B994210B5044601D0ED
:1013000000F09CFDA168094B994202D0204600F0F4
:1013100095FDE168064B994204D02046BDE8104097
:1013200000F08CBD10BD00BF78190020E01900202E
:10133000481A002010B50B4B04210B4C0B4A2046D9
:101340001A600022FFF794FF04F1680001220921CE
:10135000FFF78EFF04F1D00002221221BDE81040F9
:10136000FFF786BFB01A002078190020DD120000B8
:10137000014800F0B4B900BFB51A0020014800F0E0
:10138000AFB900BFB51A002010B50446FFF7F0FF53
:10139000236A1BB1BDE81040FFF7F0BF044B236286
:1013A000044B1B68002BF5D1FFF7C4FFF2E700BF29
:1013B000F5120000B01A00202DE9F84307468846D0
:1013C00014460026D4E90195B9F1010905D5246830
:1013D000002CF7D13046BDE8F883AB89012B07D943
:1013E000B5F90E30013303D029463846C0470643CD
:1013F0006835E9E70FB407B5064904AB086853F848
:10140000042B8168019300F0EDF903B05DF804EB63
:1014100004B0704710120020036A70B505460E46EE
:1014200084680BB9FFF7B0FF636EDB0705D4A389AF
:10143000980502D4A06D00F052F9A389190702D5CE
:101440002369002B35D12146284600F0C5F880B32A
:101450004FF0FF35636EDA0705D4A3899B0502D4EC
:10146000A06D00F03DF9284670BD002B04DAA2699A
:101470009A4217DC0A2915D023685A1C2260197079
:10148000A36816F8011F013BA3600029EDD1002BD2
:1014900011DA22460A21284600F05FF80130D7D041
:1014A0000A25D7E72246284600F057F80130E7D151
:1014B000CEE7013EE4E723685A1C22600A221A7034
:1014C000EEE70000024B01461868FFF7A5BF00BF1A
:1014D0001012002010B50C46B1F90E10FFF7FEFAFD
:1014E0000028ABBF636DA3891B1823F48053ACBFE6
:1014F0006365A38110BD2DE9F0411F468B89054628
:101500000C46DB05164605D502230022B1F90E1064
:10151000FFF7F1FAA3893246B4F90E10284623F4F6
:101520008053A3813B46BDE8F041FFF7DBBA10B51D
:101530000C46B1F90E10FFF7DEFA431CA38915BF64
:10154000606523F4805343F48053A38118BFA381C3
:1015500010BDB1F90E10FFF7C9BAF8B50E46144622
:10156000054618B1036A0BB9FFF70EFFA369A36024
:10157000A3891A0701D5236943B92146284600F0FB
:101580002BF818B14FF0FF373846F8BD2368F6B294
:1015900022693746981A6369834205DC214628464A
:1015A00000F04CFC0028EDD1A368013BA360236848
:1015B0005A1C22601E70431C62699A4204D0A3899F
:1015C000DB07E1D50A2EDFD12146284600F036FCA4
:1015D0000028D9D0D6E7000038B5294B05460C467F
:1015E000186818B1036A0BB9FFF7CEFEB4F90C30D6
:1015F000190722D4DA0607D409222A6043F04003EF
:101600004FF0FF30A38133E0580712D5616B41B131
:1016100004F14403994202D0284600F06FF80023F9
:101620006363A38923F02403A381002363602369F8
:101630002360A38943F00803A38123694BB9A389DD
:1016400003F42073B3F5007F03D02146284600F051
:1016500042FCB4F90C3013F001020AD00022A2605F
:1016600062695242A261226942B913F08000C5D179
:1016700038BD990758BF6269A260F4E70020F7E718
:101680001012002002440346934200D1704703F831
:10169000011BF9E770B50D4D00260D4C641BA4101D
:1016A000A64209D10B4D00260B4CFFF7F1F9641B44
:1016B000A410A64205D170BD55F8043B01369847E9
:1016C000EEE755F8043B01369847F2E74023000067
:1016D0004023000040230000402300007047704773
:1016E00070470A44431E914200D1704710B511F86B
:1016F000014B914203F8014FF9D110BD38B50546B1
:10170000002941D051F8043C0C1F002BB8BFE4184D
:10171000FFF7A2FD1D4A136833B9636014602846C1
:10172000BDE83840FFF79EBDA34208D920682118C4
:101730008B4201BF19685B6809182160EDE71A4602
:101740005B680BB1A342FAD911685018A0420BD1C3
:1017500020680144501811608342E0D118685B682A
:10176000084453601060DAE702D90C232B60D6E7F7
:10177000206821188B4202BF19685B6809186360F2
:1017800008BF21605460CAE738BD00BF741900204B
:101790009368013B002B936010B408DA9469A3426C
:1017A00001DB0A2903D15DF8044BFFF7D6BE1368AD
:1017B000581C1060084619705DF8044B7047F8B566
:1017C00006460F461446D518AC4201D1002007E06A
:1017D0003A4614F8011B3046FFF7DAFF431CF3D1F9
:1017E000F8BD00002DE9F04F0D469DB01446984617
:1017F000064618B1036A0BB9FFF7C6FD6B6ED90731
:1018000005D4AB899A0502D4A86DFFF768FFAB89B0
:101810001B0701D52B699BB929463046FFF7DCFE33
:1018200070B16B6EDC0704D54FF0FF301DB0BDE822
:10183000F08FAB899805F7D4A86DFFF751FFF3E758
:101840000023CDF80C804FF00109DFF8B481099333
:1018500020238DF8293030238DF82A3023469A46EC
:1018600013F8012B0AB1252AF9D1BAEB040B0BD0DE
:101870005B46224629463046FFF7A1FF013000F0C3
:10188000A780099A5A4409929AF80030002B00F078
:101890009F8000234FF0FF320AF1010A049307935F
:1018A0008DF853301A93CDE9052354460522544848
:1018B00014F8011B00F04BFB049AD8B9D10644BFC1
:1018C00020238DF85330130744BF2B238DF853305A
:1018D0009AF800302A2B15D0079A544600204FF072
:1018E0000A0C214611F8013B303B092B4BD9B0B112
:1018F000079214E0A0EB0803A24609FA03F313438E
:101900000493D2E7039B191D1B68002B0391BBBFF7
:101910005B4242F0020207930793B8BF0492237818
:101920002E2B0AD163782A2B32D1039B02341A1D45
:101930001B6843EAE37303920593DFF8D4A0032204
:101940002178504600F003FB38B1A0EB0A0040229A
:10195000049B013482401343049314F8011B0622B4
:1019600028488DF8281000F0F2FA00283FD0264BC6
:101970001BBB039B073323F0070308330393099B27
:101980003B4409936AE70CFB02320C460120A8E7AE
:10199000002301344FF00A0C19460593204610F835
:1019A000012B303A092A03D9002BC6D00591C4E790
:1019B0000CFB012104460123F0E703AB2A4604A9EE
:1019C00030460093114BAFF300800746781CD6D108
:1019D0006B6ED90705D4AB899A0502D4A86DFFF7C1
:1019E0007FFEAB895B063FF51FAF09981EE703AB8F
:1019F0002A4604A930460093044B00F07DF8E4E742
:101A0000F92200000323000000000000BF170000BF
:101A1000FF2200002DE9F047164698468A680746DF
:101A20000B690C46DDF820909342B8BF1346336033
:101A300091F843200AB1013333602368990642BF0D
:101A4000336802333360256815F0060506D104F1CA
:101A5000190AE36832689B1AAB422BDC94F84330D6
:101A60002268003B18BF0123920630D404F14302E0
:101A700041463846C847013023D023681A3454F809
:101A80000A2C03F00603042B0ABF54F80E5C002551
:101A900033684FF0000608BFED1A54F8123C08BF37
:101AA00025EAE5759342C4BF9B1AED18B5421AD1D9
:101AB000002008E00123524641463846C84701301D
:101AC00003D14FF0FF30BDE8F0870135C1E7E118E1
:101AD0005A1C30200233224481F8430094F8451008
:101AE00082F84310C2E70123224641463846C847E0
:101AF0000130E6D00136D9E72DE9FF470F7E914648
:101B000080460C46782F9A460C9E01F1430207D876
:101B1000622F0AD8002F00F0D180582F00F0B88033
:101B200004F1420684F842703AE0A7F16303152BF2
:101B3000F6D801A151F823F0911B0000A51B00006D
:101B4000211B0000211B0000211B0000211B0000A5
:101B5000A51B0000211B0000211B0000211B000011
:101B6000211B0000A31C0000CF1B00005D1C000017
:101B7000211B0000211B0000C51C0000211B0000D0
:101B8000CF1B0000211B0000211B0000651C000072
:101B900033681A1D1B68326004F1420684F8423033
:101BA00001239CE033682068191D3160060601D5C9
:101BB0001D6803E04506FBD5B3F90050002D03DA9C
:101BC0002D236D4284F8433058480A2311E02168E0
:101BD0003368080653F8045B02D4490648BFADB227
:101BE0006F2F3360514814BF0A230823002184F863
:101BF00043106668002EA66005DB21682E4321F0A5
:101C0000040121604BD01646B5FBF3F103FB1157DD
:101C1000C75D06F8017D2F460D46BB42F4D9082B5F
:101C20000BD12368DF0708D5236961689942DEBFBD
:101C3000302306F8013C06F1FF36921B22614B4629
:101C400003AA21464046CDF800A0FFF7E3FE01308D
:101C50004AD14FF0FF3004B0BDE8F087236843F06D
:101C60002003236078273248236884F845701F06D4
:101C7000316851F8045B02D45F0648BFADB23160F1
:101C8000D90744BF43F0200323601DB11023ADE703
:101C90002648E9E7236823F020032360F6E7164689
:101CA000BDE733682568181D616930602E061B6822
:101CB00001D5196002E06806FBD51980002316469D
:101CC0002361BCE7336800211A1D32601E68626818
:101CD000304600F03CF908B1801B60606368236106
:101CE000002384F84330AAE7236932464946404638
:101CF000D0470130ADD023689B0713D4E068039B25
:101D00009842B8BF1846A6E70123324649464046E6
:101D1000D04701309DD00135E36803995B1AAB428F
:101D2000F2DCEBE7002504F11906F5E70A230000D1
:101D30001B230000B1F90C202DE9F04116070546E0
:101D40000C4654D44B68002B02DC0B6C002B48DD96
:101D5000E66A002E45D0002312F480522F68216AD3
:101D60002B6030D0626DA389590705D56368D21AFC
:101D7000636B0BB1236CD21A0023E66A216A2846F2
:101D8000B047431CA38906D129681D292BD82A4AAC
:101D9000CA40D60727D50022D90462602269226092
:101DA00004D5421C01D12B6803B96065616B2F60BB
:101DB000B9B104F14403994202D02846FFF79EFCD2
:101DC000002363630DE001232846B0470246501C00
:101DD000C9D12B68002BC6D01D2B01D0162B1DD1CD
:101DE0002F60002021E043F040031BB21AE00F698E
:101DF000002FF6D093070E680F600CBF4B690023CD
:101E0000A6EB07088B60B8F1000FEADD43463A46BF
:101E1000216A2846A66AB047002808DCB4F90C30CD
:101E200043F040034FF0FF30A381BDE8F081074449
:101E3000A8EB0008E7E700BF0100402038B50B69B8
:101E400005460C4613B90025284638BD18B1036A6B
:101E50000BB9FFF799FAB4F90C30002BF3D0626E8E
:101E6000D00704D4990502D4A06DFFF738FC2846AA
:101E70002146FFF75FFF636E0546DA07E4D4A389C6
:101E80009B05E1D4A06DFFF72BFCDDE770B50C4698
:101E9000B1F90E1096B0154600291E460CDAA3893A
:101EA000002113F0800F14BF40234FF48063002003
:101EB00031602B6016B070BD6A46FEF721FE002827
:101EC000EDDB019901F47041A1F5005359425941EC
:101ED0004FF48063EBE78B89F7B59D0706460C4608
:101EE00007D504F14703236023610123636103B035
:101EF000F0BD01AB6A46FFF7C9FF009F05463046BB
:101F00003946FFF729F948B9B4F90C309A05EED4EF
:101F100023F0030343F00203A381E2E7A3892060D7
:101F200043F08003A381019BC4E904075BB1B4F9CA
:101F30000E103046FEF7E9FD28B1A38923F0030314
:101F400043F00103A381A3891D43A581CFE7C9B253
:101F50000346024410B59342184601D1002003E025
:101F6000047801338C42F6D110BD4641494C4544BA
:101F700020415353455254494F4E2E003078257816
:101F8000203D3E20006D61696E28293A2054686921
:101F9000732069732052494F54212028566572736B
:101FA000696F6E3A20323032342E30312D646576CE
:101FB000656C2D313735382D676231323032362D30
:101FC000666561747572652F72696F742D746565CD
:101FD00029006D61696E002A2A2A2052494F542037
:101FE0006B65726E656C2070616E69633A0A257369
:101FF0000A0A002A2A2A2068616C7465642E0A0085
:102000007363686564756C657228293A207374611E
:10201000636B206F766572666C6F7720646574659C
:10202000637465642C207069643D2568690A0053F7
:102030005441434B204F564552464C4F5700496E32
:1020400073696465206973722025640A004E4D49E6
:102050002048414E444C4552004D454D204D414E87
:102060004147452048414E444C455200425553207B
:102070004641554C542048414E444C45520055531E
:10208000414745204641554C542048414E444C451B
:1020900052004445425547204D4F4E2048414E4442
:1020A0004C45520044554D4D592048414E444C45F5
:1020B00052000A49535220737461636B206F766536
:1020C00072666C6F77656400537461636B20706F28
:1020D000696E74657220636F727275707465642CBA
:1020E00020726573657420746F20746F70206F6642
:1020F00020737461636B0061637469766520746832
:10210000726561643A202568690A000A436F6E743B
:10211000657874206265666F7265206861726466B6
:1021200061756C743A0020202072303A2030782596
:1021300030386C780A20202072313A2030782530EF
:10214000386C780A20202072323A203078253038D6
:102150006C780A20202072333A2030782530386C91
:10216000780A0020207231323A2030782530386CDD
:10217000780A2020206C723A2030782530386C782C
:102180000A20202070633A2030782530386C780A95
:1021900020207073723A2030782530386C780A0A23
:1021A000004653522F4641523A0020434653523A7A
:1021B0002030782530386C780A0020484653523A4F
:1021C0002030782530386C780A0020444653523A43
:1021D0002030782530386C780A0020414653523A36
:1021E0002030782530386C780A0020424641523A37
:1021F0002030782530386C780A004D4D4641523AEF
:102200002030782530386C780A004D6973630045BA
:1022100058435F5245543A2030782530386C780A5C
:1022200000416374697665207468726561643A2060
:1022300025686920222573220A004861726420669D
:1022400061756C74206F6363757272656420696E6A
:1022500020495352206E756D6265722025640A0014
:10226000417474656D7074696E6720746F20726557
:10227000636F6E7374727563742073746174652018
:10228000666F7220646562756767696E672E2E2EB1
:1022900000496E204744423A0A2020736574202486
:1022A00070633D3078256C780A20206672616D6518
:1022B00020300A202062740A000A495352207374A5
:1022C00061636B206F766572666C6F776564206200
:1022D00079206174206C65617374202564206279B3
:1022E0007465732E0A0048415244204641554C54AF
:1022F0002048414E444C455200232D302B2000688D
:102300006C4C0065666745464700303132333435E2
:102310003637383941424344454600303132333450
:102320003536373839616263646566000080005075
:102330001C1D0800009000500001090008090A0B4C
:10234000B81A0020000000000300000078190020E7
:10235000141200200000000078190020E01900206D
:10236000481A0020000000000000000000000000EB
:10237000000000000000000000000000000000005D
:10238000000000000000000000000000000000004D
:10239000000000000000000000000000000000003D
:0423A00028210000F0
:10FFE0007FE97FE9F0F732BF7FE97FE9F0F7F2BE02
:10FFF0007FE97FE9F0F768BF000000000000000023
:020000040001F9
:100000000072012055040100F1030100AD0301005D
:10001000010401001104010021040100000000009E
:100020000000000000000000000000007503010057
:100030003104010000000000290301004104010017
:10004000000000000000000000000000F5090100B1
:1000500000000000F50901000000000000000000A1
:10006000950A0100B10A0100CD0A0100E90A010068
:1000700000000000F5090100F5090100F509010083
:10008000F5090100F5090100000000000000000072
:10009000F5090100F5090100000000000000000062
:1000A000F50901000000000000000000F509010052
:1000B000F5090100F5090100F5090100F509010044
:1000C000F5090100F5090100F5090100F509010034
:1000D000F509010000000000F50901000000000022
:1000E000F509010000000000F50901000000000012
:1000F000F509010000000000000000000000000001
:1001000000000000F50901000000000000000000F0
:1001100000000000000000000000000000000000DF
:1001200000000000F50901000000000000000000D0
:1001300000000000000000000000000000000000BF
:10014000F509010037B50C4800F024FEFFF74CFF1D
:100150000A4D00242046FFF743FF0195019B33B968
:1001600020460134FFF744FF042CF3D1F1E7019B53
:10017000013B0193F2E700BFBC19010040420F00B0
:1001800070B50025054E064CA41BA408AC4200D156
:1001900070BD56F8253098470135F7E7AC1D0100D2
:1001A000AC1D01007047000008B57146034800F01F
:1001B00089FD0320024900F019F800BFE31901008E
:1001C000D119010008B5FFF7DBFF034800F0E2FD9D
:1001D000FFF7B8FFFEE700BFEC19010008B500F01B
:1001E00091FCBDE8084000F0AFBC704708B50B4B70
:1001F0000C461A6852B901221A60FFF7F6FF214631
:10020000074800F05FFD074800F0C4FDEFF31083DE
:1002100072B600F073F800F0A5FA00BF6472012016
:10022000391A0100551A010008B503790B2B04BFD8
:100230000C230371436A1A68934208D0B0F9061080
:10024000034800F03FFD0D200249FFF7CFFF08BD36
:10025000621A0100911A010070B5154C154E236801
:10026000356813BB15B12846FFF7DEFF00F098F89C
:100270002368002BFAD0002000220F4B1A6023685D
:100280000E4AB3FA83F352F823301C680B23083C60
:10029000A542237107D008B1FFF7C6FFB4F90620C5
:1002A000074B34601A80204670BD2846E4E700BF43
:1002B00068720120B0720120AC7201206C720120C2
:1002C000B47201200A4B0B4A10B59A60E02220213B
:1002D00083F822200022084CD977A0180132412A45
:1002E00080F80013F9D11A6942F010021A6110BDAA
:1002F00000ED00E00000010000E100E008B5EFF3D0
:100300000581C1F3080119B10548103900F0DAFC84
:10031000044BD3F8F030DB0700D500BE08BD00BFAA
:10032000A01A010000ED00E0114910B50C6872B68A
:10033000FFF792FF62B6A04208BF10BD2146BDE89C
:10034000104049B1EFF309821EF0100F08BF22EDF3
:10035000108A22E9F04F0A600068B0E8F04F1EF002
:10036000100F08BFB0EC108A80F3098870470000B6
:10037000B07201201EF0040F0CBFEFF30880EFF302
:10038000098000F001B80000836913F8023C012BDA
:1003900002BF4FF08052014B5A60704700ED00E001
:1003A00030BF62B6BFF36F8F72B670470D4B0E4A07
:1003B0000E496846904203D8984201D9002102E0D4
:1003C00009468D46012104207246024202D1EFF314
:1003D000088001E0EFF309802DE9F00F6B4600F093
:1003E00085F800BF58610120000004200072012040
:1003F000062008B50149FFF7F9FE00BFAF1A01005A
:10040000052008B50149FFF7F1FE00BFBB1A010046
:10041000082008B50149FFF7E9FE00BFCE1A010028
:10042000092008B50149FFF7E1FE00BFE01A01000D
:100430000A2008B50149FFF7D9FE00BFF41A0100F0
:100440000B2008B50149FFF7D1FE00BF061B0100D4
:100450007047704710B51D4C84F30A881C4AD2F8C7
:10046000883043F47003C2F88830FFF7F1FF6A4622
:1004700023461849934225D3174B1848DA1C121A01
:10048000C11E22F00302994288BF0022144900F0E5
:100490004CFD144B1448DA1C121AC11E22F0030240
:1004A000994288BF0022002100F010FDFFF7D1FF24
:1004B00000F0F9F8FFF776FE00F010FDBDE81040FF
:1004C000FFF780BE43F8041BD4E700BF00600120A3
:1004D00000ED00E0FEE7FEE76472012000720120FB
:1004E000AC1D010030740120647201202DE9F04F31
:1004F0009946514B92469A6B8FB003925A6BD3F840
:1005000028800492DA6A044605921A6BDB6B069225
:1005100007934A4B0D461A68494B9A4202D0494804
:1005200000F038FC002D5DD00026474800F032FC7A
:10053000464B47481988374609B200F0C3FB454887
:1005400000F028FC4146444800F0BCFB05994348B4
:1005500000F0B8FB0699424800F0B4FB0799414807
:1005600000F0B0FB18F4004F03D003993E4800F0B0
:10057000A9FB18F0800F03D004993C4800F0A2FBBF
:100580003B4800F007FC51463A4800F09BFB2DBB6E
:100590001AF0080F4AD02D4B374A1988374809B24C
:1005A00000F090FB364800F0F5FB3946354800F086
:1005B00089FB6946344BC91A03D53448494200F0D7
:1005C00081FB20468268C36801698C4641698E467A
:1005D000B546494691E8F00F4168006807202C496C
:1005E000FFF704FEA368E1680C9323692948089388
:1005F0006369D4E900B20B910D920993D4E90673B3
:100600000A9300F0C7FBDDE90C320B9922480091F8
:10061000594600F057FBDDE908120A9B1F4800937A
:100620003B4604F1200600F04DFB88E7217F1C4883
:10063000103900F047FBB5E700ED00E00060012055
:10064000FEE7FEE7141B01002A1B0100B472012023
:10065000591B0100031C01000C1C01001C1C0100A3
:100660002C1C01003C1C01004C1C01005C1C010006
:100670006C1C0100711C0100831C01008A1C01001C
:10068000C91C0100FA1C010058610120221D010053
:100690004F1D01006D1B0100881B0100C51B0100DF
:1006A000A31C0100704708B5FFF7FCFFFFF70AFE27
:1006B000FFF794FDBDE8084000F042BA704770476C
:1006C000034630B5EFF3108472B6094A094D10683D
:1006D0000144A94205D8084DA94202D31160421C29
:1006E00003D10C224FF0FF301A6084F3108830BD24
:1006F00000720120000004203074012019461046C9
:1007000000F01FBA1946104600F025BA1323036003
:100710004FF0FF307047132303604FF0FF307047F6
:10072000132303604FF0FF3070470023022903605A
:100730008CBF0020012070470C2907D841F2190313
:10074000CB40DB0706D44FF0FF30704740F20C631C
:100750009942F8D1024B803043F8201000207047B6
:10076000002584400122024BC3F80025FEE700BFAC
:100770000040005008B50F4B53F83030D3F810212B
:1007800072B10022C3F81021D3F83C3543B10A4BB3
:100790000A4903EBC002095C53F8303050689847AF
:1007A000074B1B682BB14FF08052064B5A60BFF3CA
:1007B0006F8F08BD981D0100B8720120B67201202C
:1007C000AC72012000ED00E001282DE9F04706465B
:1007D0000D46174600F2A8800021DFF88081544AB8
:1007E00058F8304042F8307002EBC0024FEAC009BE
:1007F0005360C4F86C1547B108EB090393F804A0E3
:100800005046FFF799FFC4F814A5C84498F805802E
:1008100003214046FFF790FF4FF0FF33B5F5614FDE
:10082000C4F80C85C4F80835C4F8103553D021D865
:10083000B5F5615F48D012D8B5F5965F42D009D8BA
:10084000B5F5966F31D0B5F5166F38D06FF08500DD
:10085000BDE8F087B5F5165FF8D1364B27E0B5F562
:10086000E14F33D0B5F5164F32D0B5F5964FEDD1F7
:10087000314B1CE0314B9D4236D00AD8B5F5E13FF3
:100880002CD0B5F5613F2CD0B5F5963FDED12C4B81
:100890000DE0B5F5612F2AD02A4B9D422AD0B5F53F
:1008A000E12FD3D14FF0E86301E04FF49E23C4F869
:1008B00024350823C4F80035FFB90020C8E74FF4F9
:1008C0001D23F4E7204BF2E7204BF0E7204BEEE747
:1008D0004FF41D03EBE74FF46B03E8E74FF0EB73C6
:1008E000E5E74FF06C73E2E74FF08063DFE74FF02E
:1008F0007063DCE74FF08053D9E70122154BC4F851
:1009000038253344C4F834351023C4F80433D4F8FC
:100910000032204643F02003C4F800320E49226022
:10092000324600F0B5F8C8E76FF0120090E700BF5C
:10093000B87201200050270000A04E0090D00300A4
:1009400000903A0140420F0000B0130000F03A005E
:1009500000C07500B672012075070100981D0100E6
:100960002DE9F047012806460C46154688B001D906
:10097000FFF71AFC11F0005727D14FF00109DFF8FB
:1009800070A0AF4202D308B0BDE8F087A5EB07081E
:10099000B8F1200F28BF4FF0200868464246E11901
:1009A00000F0C3FA00225AF83630C3F82021C3F809
:1009B00044D5C3F84885C3F80890D3F82021002A0D
:1009C000FBD0C3F80C904744DBE70022084B53F8F8
:1009D0003030C3F820210122C3F84415C3F848552C
:1009E0009A60D3F820110029FBD0DA60CBE700BF72
:1009F000981D0100FFF724BD044B1B682BB14FF07D
:100A00008052034B5A60BFF36F8F7047AC72012066
:100A100000ED00E008B50C4B98420DD003F5805373
:100A200098420BD003F58053984209D003F58053C8
:100A3000984207D0FFF7B8FB002008BD0120FCE773
:100A40000220FAE70320F8E70080005038B50D4691
:100A50001446FFF7DFFF0A4B43F82050094B43F8D9
:100A60002040094B1B56002B08DB0122590903F0DB
:100A70001F0302FA03F3054A42F8213038BD00BFD4
:100A8000D8720120C8720120A81D010000E100E019
:100A9000FFF7DCBF08B5044A044B10681B68984791
:100AA000BDE80840FFF7A8BFC8720120D872012036
:100AB00008B5044A044B50685B689847BDE8084095
:100AC000FFF79ABFC8720120D872012008B5044A06
:100AD000044B90689B689847BDE80840FFF78CBFBF
:100AE000C8720120D872012008B5044A044BD068AE
:100AF000DB689847BDE80840FFF77EBFC872012059
:100B0000D872012038B503210220FFF715FE042515
:100B100003210A4C0846E560FFF70EFE0823032177
:100B2000E3602846FFF708FE10230321E360052059
:100B3000FFF702FE2023E36038BD00BF002584409C
:100B400070476FF08500704700234FF4E1311A467B
:100B50001846FFF739BE10B50C460A46014600207C
:100B6000FFF7FEFE204610BD70B50F4E0C46054641
:100B7000316811B9FFF7A4FD306021462846FFF720
:100B80009FFD431C03D14FF0FF34204670BDC41CB1
:100B900024F00304A042F8D0211A2846FFF790FD64
:100BA0000130F2D1EFE700BFE87201202DE9F843F0
:100BB000CD1C064625F0030508350C2D38BF0C2545
:100BC000002D01DBA94204D90C2333600020BDE8CD
:100BD000F883DFF8D48000F069F8D8F800301C46BC
:100BE00044BB29463046FFF7BFFF431C044658D19B
:100BF000D8F800402746002F43D1002C4BD0236863
:100C00003946304604EB0309FFF75AFD814542D1CE
:100C1000216830466D1A2946FFF7A6FF01303AD009
:100C200023682B442360D8F800305A6862BBC8F8A8
:100C300000700FE02268521B20D40B2A17D96119CB
:100C4000A342256018BF5960636808BFC8F8001048
:100C500062514B60304600F02FF804F10B00231D69
:100C600020F00700C21A1CBF1B1AA350AFE762682E
:100C7000A3420CBFC8F800205A60EBE72346646823
:100C8000AEE73C467F68B6E71A465B68A342FBD1F5
:100C900000235360DEE70C233046336000F00CF88D
:100CA00094E70560D6E700BFEC720120014800F030
:100CB0003AB900BFF0720120014800F035B900BF19
:100CC000F07201200FB407B5064904AB086853F869
:100CD000042B8168019300F0A9F903B05DF804EBDF
:100CE00004B0704704720120036A70B505460E46D1
:100CF00084680BB900F07AFD636EDB0705D4A38925
:100D0000980502D4A06D00F00EF9A389190702D549
:100D10002369002B35D12146284600F081F880B3A5
:100D20004FF0FF35636EDA0705D4A3899B0502D423
:100D3000A06D00F0F9F8284670BD002B04DAA26916
:100D40009A4217DC0A2915D023685A1C22601970B0
:100D5000A36816F8011F013BA3600029EDD1002B09
:100D600011DA22460A21284600F01CF80130D7D0BB
:100D70000A25D7E72246284600F014F80130E7D1CB
:100D8000CEE7013EE4E723685A1C22600A221A706B
:100D9000EEE70000024B01461868FFF7A5BF00BF51
:100DA00004720120F8B50E461446054618B1036AD0
:100DB0000BB900F01BFDA369A360A3891A0701D535
:100DC000236943B92146284600F02AF818B14FF0AC
:100DD000FF373846F8BD2368F6B222693746981ABD
:100DE0006369834205DC2146284600F04BFC00285D
:100DF000EDD1A368013BA36023685A1C22601E70DA
:100E0000431C62699A4204D0A389DB07E1D50A2E0C
:100E1000DFD12146284600F035FC0028D9D0D6E79E
:100E200038B5294B05460C46186818B1036A0BB94A
:100E300000F0DCFCB4F90C30190722D4DA0607D430
:100E400009222A6043F040034FF0FF30A38133E0D2
:100E5000580712D5616B41B104F14403994202D0A5
:100E6000284600F06FF800236363A38923F024036E
:100E7000A3810023636023692360A38943F00803EF
:100E8000A38123694BB9A38903F42073B3F5007FD1
:100E900003D02146284600F004FDB4F90C3013F0CD
:100EA00001020AD00022A26062695242A261226954
:100EB00042B913F08000C5D138BD990758BF6269A7
:100EC000A260F4E70020F7E7047201200244034621
:100ED000934200D1704703F8011BF9E770B50D4D3F
:100EE00000260D4C641BA410A64209D10B4D002610
:100EF0000B4CFFF7E3FB641BA410A64205D170BDA9
:100F000055F8043B01369847EEE755F8043B0136A7
:100F10009847F2E7AC1D0100AC1D0100AC1D0100BB
:100F2000AC1D01007047704770470A44431E914250
:100F300000D1704710B511F8014B914203F8014FF1
:100F4000F9D110BD38B50546002941D051F8043C0F
:100F50000C1F002BB8BFE418FFF7A8FE1D4A13684A
:100F600033B9636014602846BDE83840FFF7A4BE7B
:100F7000A34208D9206821188B4201BF19685B6819
:100F800009182160EDE71A465B680BB1A342FAD954
:100F900011685018A0420BD120680144501811600C
:100FA0008342E0D118685B68084453601060DAE758
:100FB00002D90C232B60D6E7206821188B4202BF90
:100FC00019685B680918636008BF21605460CAE74C
:100FD00038BD00BFEC7201209368013B002B936089
:100FE00010B408DA9469A34201DB0A2903D15DF841
:100FF000044BFFF7D7BE1368581C106008461970E1
:101000005DF8044B7047F8B506460F461446D518F0
:10101000AC4201D1002007E03A4614F8011B3046EB
:10102000FFF7DAFF431CF3D1F8BD00002DE9F04FC4
:101030000D469DB014469846064618B1036A0BB992
:1010400000F0D4FB6B6ED90705D4AB899A0502D4A6
:10105000A86DFFF768FFAB891B0701D52B699BB90A
:1010600029463046FFF7DCFE70B16B6EDC0704D515
:101070004FF0FF301DB0BDE8F08FAB899805F7D475
:10108000A86DFFF751FFF3E70023CDF80C804FF078
:101090000109DFF8B481099320238DF8293030232A
:1010A0008DF82A3023469A4613F8012B0AB1252AD7
:1010B000F9D1BAEB040B0BD05B46224629463046E9
:1010C000FFF7A1FF013000F0A780099A5A44099266
:1010D0009AF80030002B00F09F8000234FF0FF3281
:1010E0000AF1010A049307938DF853301A93CDE95E
:1010F000052354460522544814F8011B00F050FC07
:10110000049AD8B9D10644BF20238DF85330130771
:1011100044BF2B238DF853309AF800302A2B15D07A
:10112000079A544600204FF00A0C214611F8013B63
:10113000303B092B4BD9B0B1079214E0A0EB080368
:10114000A24609FA03F313430493D2E7039B191D44
:101150001B68002B0391BBBF5B4242F00202079366
:101160000793B8BF049223782E2B0AD163782A2BD9
:1011700032D1039B02341A1D1B6843EAE3730392C6
:101180000593DFF8D4A003222178504600F008FC34
:1011900038B1A0EB0A004022049B01348240134383
:1011A000049314F8011B062228488DF8281000F03B
:1011B000F7FB00283FD0264B1BBB039B073323F0D4
:1011C000070308330393099B3B4409936AE70CFB2D
:1011D00002320C460120A8E7002301344FF00A0C2C
:1011E00019460593204610F8012B303A092A03D9F5
:1011F000002BC6D00591C4E70CFB01210446012356
:10120000F0E703AB2A4604A930460093114BAFF335
:1012100000800746781CD6D16B6ED90705D4AB8900
:101220009A0502D4A86DFFF77FFEAB895B063FF5F8
:101230001FAF09981EE703AB2A4604A93046009366
:10124000044B00F07DF8E4E7621D01006C1D010015
:101250000000000007100100681D01002DE9F047A3
:10126000164698468A6807460B690C46DDF82090BA
:101270009342B8BF1346336091F843200AB101335B
:1012800033602368990642BF3368023333602568B0
:1012900015F0060506D104F1190AE36832689B1AB5
:1012A000AB422BDC94F843302268003B18BF01238B
:1012B000920630D404F1430241463846C847013013
:1012C00023D023681A3454F80A2C03F00603042BA5
:1012D0000ABF54F80E5C002533684FF0000608BFC3
:1012E000ED1A54F8123C08BF25EAE5759342C4BFD5
:1012F0009B1AED18B5421AD1002008E0012352468E
:1013000041463846C847013003D14FF0FF30BDE8B1
:10131000F0870135C1E7E1185A1C3020023322441E
:1013200081F8430094F8451082F84310C2E7012386
:10133000224641463846C8470130E6D00136D9E753
:101340002DE9FF470F7E914680460C46782F9A463E
:101350000C9E01F1430207D8622F0AD8002F00F03B
:10136000D180582F00F0B88004F1420684F8427012
:101370003AE0A7F16303152BF6D801A151F823F049
:10138000D9130100ED130100691301006913010075
:101390006913010069130100ED13010069130100D5
:1013A000691301006913010069130100EB140100C6
:1013B00017140100A514010069130100691301004D
:1013C0000D150100691301001714010069130100D4
:1013D00069130100AD14010033681A1D1B683260E7
:1013E00004F1420684F8423001239CE0336820680F
:1013F000191D3160060601D51D6803E04506FBD5C1
:10140000B3F90050002D03DA2D236D4284F84330E8
:1014100058480A2311E021683368080653F8045B32
:1014200002D4490648BFADB26F2F3360514814BF94
:101430000A230823002184F843106668002EA66062
:1014400005DB21682E4321F0040121604BD01646B4
:10145000B5FBF3F103FB1157C75D06F8017D2F467D
:101460000D46BB42F4D9082B0BD12368DF0708D502
:10147000236961689942DEBF302306F8013C06F11A
:10148000FF36921B22614B4603AA21464046CDF807
:1014900000A0FFF7E3FE01304AD14FF0FF3004B067
:1014A000BDE8F087236843F02003236078273248A3
:1014B000236884F845701F06316851F8045B02D434
:1014C0005F0648BFADB23160D90744BF43F0200387
:1014D00023601DB11023ADE72648E9E7236823F018
:1014E00020032360F6E71646BDE733682568181D1C
:1014F000616930602E061B6801D5196002E068063C
:10150000FBD51980002316462361BCE73368002110
:101510001A1D32601E686268304600F041FA08B158
:10152000801B606063682361002384F84330AAE76E
:101530002369324649464046D0470130ADD0236842
:101540009B0713D4E068039B9842B8BF1846A6E7F0
:101550000123324649464046D04701309DD00135EF
:10156000E36803995B1AAB42F2DCEBE7002504F178
:101570001906F5E7731D0100841D0100B1F90C2067
:101580002DE9F041160705460C4654D44B68002B54
:1015900002DC0B6C002B48DDE66A002E45D00023F0
:1015A00012F480522F68216A2B6030D0626DA389BB
:1015B000590705D56368D21A636B0BB1236CD21A35
:1015C0000023E66A216A2846B047431CA38906D156
:1015D00029681D292BD82A4ACA40D60727D50022B8
:1015E000D90462602269226004D5421C01D12B68B3
:1015F00003B96065616B2F60B9B104F1440399428E
:1016000002D02846FFF79EFC002363630DE0012310
:101610002846B0470246501CC9D12B68002BC6D0C3
:101620001D2B01D0162B1DD12F60002021E043F08F
:1016300040031BB21AE00F69002FF6D093070E6823
:101640000F600CBF4B690023A6EB07088B60B8F155
:10165000000FEADD43463A46216A2846A66AB047AB
:10166000002808DCB4F90C3043F040034FF0FF30A1
:10167000A381BDE8F0810744A8EB0008E7E700BFBD
:101680000100402038B50B6905460C4613B900250A
:10169000284638BD18B1036A0BB900F0A7F8B4F9B1
:1016A0000C30002BF3D0626ED00704D4990502D41D
:1016B000A06DFFF738FC28462146FFF75FFF636EF9
:1016C0000546DA07E4D4A3899B05E1D4A06DFFF7B2
:1016D0002BFCDDE7002310B50446836081811946A9
:1016E0004366C28108228361C0E90033C0E9043344
:1016F0005C30FFF7EBFB0D4B246263620C4BA36283
:101700000C4BE3620C4B23630C4B9C4206D003F161
:101710006802944202D0D0339C4205D104F15800B3
:10172000BDE81040FFF7FEBB10BD00BF1B19010054
:101730003D1901007519010099190100F472012089
:10174000024A0349034800F069B800BF54720120FF
:10175000851601000872012041680C4B994210B5B2
:10176000044601D0FFF78EFFA168094B994202D0D1
:101770002046FFF787FFE168064B994204D02046D8
:10178000BDE81040FFF77EBF10BD00BFF47201201E
:101790005C730120C473012010B50B4B04210B4C6A
:1017A0000B4A20461A600022FFF794FF04F16800FC
:1017B00001220921FFF78EFF04F1D000022212213D
:1017C000BDE81040FFF786BF2C740120F4720120A1
:1017D000411701000148FFF7A6BB00BFF1720120CD
:1017E0000148FFF7A1BB00BFF172012010B504460C
:1017F000FFF7F0FF236A1BB1BDE81040FFF7F0BF11
:10180000044B2362044B1B68002BF5D1FFF7C4FF88
:10181000F2E700BF591701002C7401202DE9F843AD
:101820000746884614460026D4E90195B9F1010916
:1018300005D52468002CF7D13046BDE8F883AB8984
:10184000012B07D9B5F90E30013303D029463846AC
:10185000C04706436835E9E770B50C46B1F90E108C
:1018600096B0154600291E460CDAA389002113F014
:10187000800F14BF40234FF48063002031602B6041
:1018800016B070BD6A46FEF74BFF0028EDDB0199EC
:1018900001F47041A1F50053594259414FF480635E
:1018A000EBE78B89F7B59D0706460C4607D504F193
:1018B0004703236023610123636103B0F0BD01ABE3
:1018C0006A46FFF7C9FF009F054630463946FFF7D5
:1018D0006DF948B9B4F90C309A05EED423F003033E
:1018E00043F00203A381E2E7A389206043F0800371
:1018F000A381019BC4E904075BB1B4F90E10304623
:10190000FEF713FF28B1A38923F0030343F001037B
:10191000A381A3891D43A581CFE710B50C46B1F97A
:101920000E10FEF7EBFE0028ABBF636DA3891B18FA
:1019300023F48053ACBF6365A38110BD2DE9F04152
:101940001F468B8905460C46DB05164605D5022346
:101950000022B1F90E10FEF7DEFEA3893246B4F97B
:101960000E10284623F48053A3813B46BDE8F04186
:10197000FEF7C8BE10B50C46B1F90E10FEF7CBFE4F
:10198000431CA38915BF606523F4805343F480533F
:10199000A38118BFA38110BDB1F90E10FEF7B6BE2A
:1019A000C9B20346024410B59342184601D1002043
:1019B00003E0047801338C42F6D110BD57686565A9
:1019C0006565205C6F2F0025733A2575203D3E200C
:1019D000004641494C454420415353455254494FD8
:1019E0004E2E0030782578203D3E20006D61696ED6
:1019F00028293A20546869732069732052494F544A
:101A000021202856657273696F6E3A203230323465
:101A10002E30312D646576656C2D313735382D6764
:101A20006231323032362D666561747572652F729F
:101A3000696F742D74656529002A2A2A2052494F3E
:101A400054206B65726E656C2070616E69633A0A32
:101A500025730A0A002A2A2A2068616C7465642E9C
:101A60000A007363686564756C657228293A20738F
:101A70007461636B206F766572666C6F7720646546
:101A80007465637465642C207069643D2568690A17
:101A900000535441434B204F564552464C4F57003C
:101AA000496E73696465206973722025640A004E6B
:101AB0004D492048414E444C4552004D454D204D26
:101AC000414E4147452048414E444C455200425505
:101AD00053204641554C542048414E444C455200F9
:101AE0005553414745204641554C542048414E44AA
:101AF0004C4552004445425547204D4F4E204841E9
:101B00004E444C45520044554D4D592048414E4499
:101B10004C4552000A49535220737461636B206F25
:101B2000766572666C6F77656400537461636B20D1
:101B3000706F696E74657220636F72727570746510
:101B4000642C20726573657420746F20746F70202C
:101B50006F6620737461636B0061637469766520DE
:101B60007468726561643A202568690A000A436FE7
:101B70006E74657874206265666F72652068617244
:101B8000646661756C743A0020202072303A20300F
:101B9000782530386C780A20202072313A2030784D
:101BA0002530386C780A20202072323A203078258F
:101BB00030386C780A20202072333A203078253073
:101BC000386C780A0020207231323A203078253083
:101BD000386C780A2020206C723A20307825303812
:101BE0006C780A20202070633A2030782530386CD9
:101BF000780A20207073723A2030782530386C785B
:101C00000A0A004653522F4641523A002043465397
:101C1000523A2030782530386C780A0020484653F4
:101C2000523A2030782530386C780A0020444653E8
:101C3000523A2030782530386C780A0020414653DB
:101C4000523A2030782530386C780A0020424641DC
:101C5000523A2030782530386C780A004D4D464194
:101C6000523A2030782530386C780A004D69736319
:101C7000004558435F5245543A2030782530386C3F
:101C8000780A00286E6F6E65290041637469766575
:101C9000207468726561643A202568692022257382
:101CA000220A0048617264206661756C74206F635B
:101CB00063757272656420696E20495352206E7597
:101CC0006D6265722025640A00417474656D7074DC
:101CD000696E6720746F207265636F6E73747275BE
:101CE000637420737461746520666F72206465622A
:101CF000756767696E672E2E2E00496E2047444235
:101D00003A0A2020736574202470633D3078256C76
:101D1000780A20206672616D6520300A2020627486
:101D20000A000A49535220737461636B206F766511
:101D300072666C6F776564206279206174206C65CF
:101D40006173742025642062797465732E0A0048DB
:101D5000415244204641554C542048414E444C4544
:101D60005200232D302B2000686C4C0065666745BF
:101D70004647003031323334353637383941424303
:101D800044454600303132333435363738396162B4
:101D90006364656600000000008000401C1D0800B0
:101DA000009000400001090008090A0B307401206E
:101DB0000872012000000000F47201205C73012011
:101DC000C4730120000000000000000000000000BB
:101DD0000000000000000000000000000000000003
:101DE00000000000000000000000000000000000F3
:101DF00000000000000000000000000000000000E3
:101E00000000000003000000F4720120280100001F
:00000001FF
